:020000040000FA
:100000000C9418020C9440020C9440020C94F714C7
:100010000C94F7140C94F7140C9440020C94F913FC
:100020000C9440020C9440020C9440020C94400248
:100030000C9440020C9440020C9440020C94400238
:100040000C94AD140C9440020C947B140C94551435
:100050000C9440020C9440020C9440020C94400218
:100060000C9440020C94400200407A10F35A00A015
:10007000724E18090010A5D4E80000E87648170071
:1000800000E40B54020000CA9A3B000000E1F505B1
:10009000000080969800000040420F000000A086FB
:1000A00001000000102700000000E803000000002D
:1000B0006400000000000A000000000001000000D1
:1000C00000002C76D888DC674F0823DFC1DFAE59EB
:1000D000E1B1B796E5E3E453C63AE651997696E87E
:1000E000E6C28426EB898C9B62ED407C6FFCEFBC02
:1000F0009C9F40F2BAA56FA5F490055A2AF75C932D
:100100006B6CF9676DC11BFCE0E40D47FEF520E662
:10011000B500D0ED902E0300943577050080841E45
:10012000080000204E0A000000C80C333333330FA0
:10013000986E12831141EF8D2114893BE65516CF3D
:10014000FEE6DB18D1844B381BF77C1D901DA4BB49
:10015000E424203284725E228100C9F124ECA1E5FE
:100160003D275D20004661696C656420746F2072D4
:100170006561642066726F6D204D50582073656E06
:10018000736F7221004661696C656420746F207220
:100190006561642066726F6D204448542073656EFB
:1001A000736F722100626C6E6B696E6600766572A9
:1001B00000312E302E3100682D62656174003435B7
:1001C00000627566662D696E0032353600646576AC
:1001D0000041726475696E6F20556E6F00637075B3
:1001E0000041546D6567613332385000636F6E00B3
:1001F00053747265616D006275696C64004D61795C
:1002000020323920323032322031343A35393A31E5
:100210003400000000000000240027002A00020D26
:100220000A202020205F5F5F20205F5F20202020A9
:100230002020202020205F5F0D0A2020202F205F1B
:1002400020292F202F5F205F5F5F5F5F20202F20FE
:100250002F5F5F0D0A20202F205F20202F202F20CE
:100260002F2F202F205F205C2F2020275F2F0D0AAB
:10027000202F5F5F5F5F2F5F2F5C5F2C202F5F2F32
:100280002F5F2F5F2F5C5F5C0D0A20202020202035
:1002900020202F5F5F5F2F2076312E302E31206F90
:1002A0006E2041726475696E6F20556E6F0D0A0085
:1002B000436F6E6E656374696E672E2E2E006D73CC
:1002C000292E005265616479202870696E673A2092
:1002D0000000000008000201000003040700000005
:1002E0000000000000430243024302430243024372
:1002F00002430243024302430243024302430243D6
:1003000002430243024302430243024302430243C5
:1003100002430243024302430243024302430243B5
:1003200002430243024202420242024202420242AB
:10033000024202420242024202420242024202429D
:10034000024202420242024202420242024202428D
:10035000024202420242024202420242024202427D
:100360000242024202496E76616C6964204857205D
:10037000636D643A20005365727665723A200052CC
:1003800065646972656374696E6720746F200052DA
:1003900065616479005061636B657420746F6F20D0
:1003A0006269673A2000436F6E6E65637420666110
:1003B000696C65642E20636F64653A2000496E762F
:1003C000616C6964206175746820746F6B656E0080
:1003D0004C6F67696E2074696D656F757400486550
:1003E000617274626561742074696D656F75740003
:1003F0000000000023002600290000000000250066
:1004000028002B0004040404040404040202020271
:1004100002020303030303030102040810204080C7
:100420000102040810200102040810206F150219AF
:1004300011241FBECFEFD8E0DEBFCDBF11E0A0E09A
:10044000B1E0EEEFF0E402C005900D92AC36B107DA
:10045000D9F723E0ACE6B1E001C01D92AB3FB20793
:10046000E1F712E0C7E1D2E004C02197FE010E944B
:100470003C20C631D107C9F70E9475160C94722032
:100480000C94000008950895CF92DF92EF92FF92AE
:10049000CF93DF93B091B003A0E08111AB2F809197
:1004A000B10390E0880F991FAC0140515C4FC090A0
:1004B000B603D090B703E090B803F090B90330E0F2
:1004C00020E0FA01C591D491E881B90190E080E083
:1004D000EB23EA130AC02F5F3F4F6C157D058E0595
:1004E0009F0578F36FEF7FEFCB01DF91CF91FF9006
:1004F000EF90DF90CF900895EF92FF920F931F93AC
:10050000CF93DF938C017B01D0E0C0E0F701EC0FCB
:10051000FD1F6491662361F0D801ED91FC9101907B
:10052000F081E02DC8010995892B11F02196EECFBD
:10053000CE01DF91CF911F910F91FF90EF90089521
:10054000AF92BF92CF92DF92EF92FF920F931F93E1
:10055000CF93DF936C017B018B01040F151FEB011F
:100560005E01AE18BF08C017D10759F06991D601D6
:10057000ED91FC910190F081E02DC6010995892B48
:1005800079F7C501DF91CF911F910F91FF90EF9007
:10059000DF90CF90BF90AF900895FC01538D448DB4
:1005A000252F30E0842F90E0821B930B541710F01E
:1005B000CF96089501970895FC01918D828D98172B
:1005C00061F0A28DAE0FBF2FB11D5D968C91928D03
:1005D0009F5F9F73928F90E008958FEF9FEF089534
:1005E000FC01918D828D981731F0828DE80FF11DFD
:1005F000858D90E008958FEF9FEF0895FC01918D18
:10060000228D892F90E0805C9F4F821B91098F7310
:10061000992708958AEC91E00E94FE0221E0892B3F
:1006200009F420E0822F089580E090E0892B29F0E2
:100630000E940A0381110C9400000895FC01A48D0E
:10064000A80FB92FB11DA35ABF4F2C91848D90E0F4
:1006500001968F739927848FA689B7892C93A089D7
:10066000B1898C91837080648C93938D848D981361
:1006700006C00288F389E02D80818F7D80830895F4
:10068000EF92FF920F931F93CF93DF93EC0181E0E2
:10069000888F9B8D8C8D98131AC0E889F989808189
:1006A00085FF15C09FB7F894EE89FF896083E889BC
:1006B000F98980818370806480839FBF81E090E0AE
:1006C000DF91CF911F910F91FF90EF900895F62E3B
:1006D0000B8D10E00F5F1F4F0F731127E02E8C8DD5
:1006E0008E110CC00FB607FCFACFE889F98980811A
:1006F00085FFF5CFCE010E941E03F1CFEB8DEC0FED
:10070000FD2FF11DE35AFF4FF0829FB7F8940B8F36
:10071000EA89FB8980818062CFCFCF93DF93EC01A0
:10072000888D8823B9F0AA89BB89E889F9898C91D9
:1007300085FD03C0808186FD0DC00FB607FCF7CF95
:100740008C9185FFF2CF808185FFEDCFCE010E9495
:100750001E03E9CFDF91CF910895833081F028F413
:10076000813099F08230A9F008958730A9F088305F
:10077000C9F08430B1F4809180008F7D03C08091F6
:1007800080008F7780938000089584B58F7784BD33
:10079000089584B58F7DFBCF8091B0008F778093D3
:1007A000B00008958091B0008F7DF9CF1F93CF9353
:1007B000DF93282F30E0F901EF52FD4F8491F901CA
:1007C000E85EFB4FD491F901EC5FFB4FC491CC2361
:1007D000A9F0162F81110E94AD03EC2FF0E0EE0F6F
:1007E000FF1FE650FC4FA591B4918FB7F894EC91A0
:1007F000111108C0D095DE23DC938FBFDF91CF911C
:100800001F910895DE2BF8CF9091000189130BC042
:10081000EEE1F2E0E4919FEF90930001E13049F0C6
:1008200028F0E23061F060E00C94D60310926E0084
:10083000FACF90916F009D7F90936F00F4CF9091CD
:1008400070009D7F9093700091E09093B000909124
:10085000B100987F94609093B1001092B300E3CF01
:10086000CF93DF9390E0FC01E85EFB4F24918C5F17
:100870009B4FFC0184918823C9F090E0880F991F59
:10088000FC01EC5EFD4FA591B491FC01E650FC4FDC
:10089000C591D49161110DC09FB7F8948C912095AA
:1008A00082238C938881282328839FBFDF91CF9157
:1008B0000895623051F49FB7F8943C91822F80954F
:1008C00083238C93E8812E2BEFCF8FB7F894EC9194
:1008D0002E2B2C938FBFEACF8E3008F08E5087706E
:1008E000806480937C0080917A00806480937A0099
:1008F00080917A0086FDFCCF8091780090917900FC
:1009000008953FB7F8948091BB019091BC01A091EC
:10091000BD01B091BE0126B5A89B05C02F3F19F0BF
:100920000196A11DB11D3FBFBA2FA92F982F88276F
:10093000BC01CD01620F711D811D911D42E0660F4A
:10094000771F881F991F4A95D1F708958F929F921C
:10095000AF92BF92CF92DF92EF92FF926B017C0138
:100960000E9481044B015C01C114D104E104F10433
:10097000B9F00E948104681979098A099B09683EC7
:1009800073408105910580F321E0C21AD108E10886
:10099000F10888EE880E83E0981EA11CB11CE4CFFC
:1009A000FF90EF90DF90CF90BF90AF909F908F908F
:1009B00008952FB7F8946091B7017091B8018091B4
:1009C000B9019091BA012FBF0895CF92DF92EF92B3
:1009D000FF920F931F93CF93DF93CDB7DEB7C05431
:1009E000D1400FB6F894DEBF0FBECDBF0E94D90430
:1009F0000091B2031091B3032091B4033091B50379
:100A00006B017C01C01AD10AE20AF30A9701860140
:100A1000003D17402105310590F48091BA03C05C78
:100A2000DE4F0FB6F894DEBF0FBECDBFDF91CF9182
:100A30001F910F91FF90EF90DF90CF9008956093FA
:100A4000B2037093B3038093B4039093B5031092F1
:100A5000AD031092AC031092AB031092AA03109254
:100A6000A90362E08091AE030E94300461E070E06F
:100A700080E090E00E94A60461E08091AE030E94B5
:100A8000300460E08091AE030E94D6038091AF03F2
:100A90008551823020F58BE291E10197F1F762E018
:100AA0008091AE030E9430048091BB0390E08230BD
:100AB000910538F0880F991F880F991F05970197A6
:100AC000F1F7F89480E00E9444026F3F7F4F8F4F10
:100AD0009F4F61F41092BA03789480E0A0CF64E154
:100AE00070E080E090E00E94A604D9CF81E00E94EF
:100AF00044026F3F7F4F8F4F9F4F61F38E010F5F17
:100B00001F4F6E012FEBC21A2EEFD20A780180E040
:100B10000E944402F701608371838283938381E0A2
:100B20000E944402F7016483758386839783F8E00B
:100B3000EF0EF11CEC14FD0451F7789430E020E046
:100B4000F801C080D180E280F380448155816681C4
:100B50007781FFEFCF16DF06EF06FF0631F04F3F3C
:100B60008FEF58076807780719F41092BA03B5CFCA
:100B7000F90183E0F595E7958A95E1F7E755FC4F94
:100B80008081880FC416D506E606F70610F180832B
:100B90002F5F3F4F085F1F4F2832310589F6409184
:100BA000AD032091A9038091AA03280F3327331F97
:100BB0008091AB03280F311D8091AC03820F932FDE
:100BC000911D99274817190681F681E08093BA0391
:100BD00026CF8160DCCF2091C8013091C901281750
:100BE000390771F49091C6018091C701981741F0BF
:100BF000E091C601F0E0EA58FE4F808190E0089550
:100C00008FEF9FEF0895EF92FF920F931F93CF9373
:100C1000DF93DC015C96ED90FC905D97E114F104AC
:100C200079F481E090E013969C938E93129790E074
:100C300080E0DF91CF911F910F91FF90EF90089589
:100C40005196ED91FC91529750968C915097982F18
:100C500090950FB75E962C915E97122F127021FD22
:100C60006095F8942081112319F1282B2083E70146
:100C70002197F1F728E0462F50E0308160FF1AC03D
:100C8000382B3083E7012197F1F7BA017595679505
:100C9000215089F7112381F08081892380830FBF40
:100CA0005C968D919C910197F1F781E090E0C1CF26
:100CB0002923DCCF3923E5CF9081892BEFCF2091F9
:100CC000C8013091C9012817390771F48091C70113
:100CD0002091C60190E0805C9F4F821B910960E4E7
:100CE00070E00E94E71F089590E080E00895209151
:100CF000C8013091C90128173907B9F49091C6018C
:100D00008091C701981789F0E091C601F0E0EA5898
:100D1000FE4F80812091C60130E02F5F3F4F2F733F
:100D200033272093C60190E008958FEF9FEF089539
:100D300090E080E008958F929F92AF92BF92CF9201
:100D4000DF92EF92FF920F931F93CF93DF936C018B
:100D50007B018B01040F151F0E94D9044B015C011C
:100D6000E701C017D107C8F40E94D90468197909AE
:100D70008A099B09603777418105910570F4D60196
:100D80008D919C91DC01ED91FC910284F385E02D25
:100D9000099597FDE6CF8993E4CFCE018E199F097F
:100DA000DF91CF911F910F91FF90EF90DF90CF9047
:100DB000BF90AF909F908F900895FB01019000200D
:100DC000E9F73197AF01461B570BDC01ED91FC9120
:100DD0000280F381E02D09948F929F92AF92BF928F
:100DE0000F931F93CF93DF93CDB7DEB7A1970FB6C5
:100DF000F894DEBF0FBECDBF19A2423008F44AE01E
:100E00008E010F5D1F4F842E912CB12CA12CA501BA
:100E100094010E94FB1FE62FB901CA01EA3004F5D4
:100E2000E05DD801EE938D01232B242B252B79F740
:100E300090E080E0109729F0BD0188ED93E00E94DA
:100E4000DD06A1960FB6F894DEBF0FBECDBFDF91D1
:100E5000CF911F910F91BF90AF909F908F90089569
:100E6000E95CDFCF6BE588ED93E00E9403060E940A
:100E7000D9044AE00E94EC0662E671E088ED93E056
:100E80000C947C02CF93DF93BC0188ED93E00E9429
:100E9000DD06EC016CE471E088ED93E00E94DD0674
:100EA0008C0F9D1FDF91CF910895CF93DF93BC01ED
:100EB00090E080E04AE00E94EC06EC016CE471E016
:100EC00088ED93E00E94DD068C0F9D1FDF91CF918E
:100ED00008950F931F93CF93DF93EC010E947C0240
:100EE0008C016CE471E0CE010E94DD06800F911F41
:100EF000DF91CF911F910F910895DC01ED91FC914D
:100F00001197309761F012962D913C911397E2174B
:100F1000F30728F401900020E9F7ED93FC9308957E
:100F2000FC0180819181009739F022813381821701
:100F3000930710F40C94611A90E080E008950F93E9
:100F40001F93CF93DF93EC01FB0101900020E9F7A1
:100F50008F01061B170B8A819B81A801480F591F1F
:100F60002C813D812417350768F028813981A8013B
:100F7000820F931F0E9451204A815B81400F511FB5
:100F80005B834A83DF91CF911F910F9108950F9357
:100F90001F93CF93DF93CDB7DEB762970FB6F89468
:100FA000DEBF0FBECDBF8C01CB014AE0BE016F5F3B
:100FB0007F4F0E94AF1ABE016F5F7F4FC8010E9432
:100FC0009F0762960FB6F894DEBF0FBECDBFDF91CC
:100FD000CF911F910F9108953F924F925F926F9220
:100FE0007F928F929F92AF92BF92CF92DF92EF92B9
:100FF000FF920F931F93CF93DF93CDB7DEB7A197E7
:101000000FB6F894DEBF0FBECDBF6C012DB73EB753
:1010100039A328A360E070E0CB010E94A604D601AA
:1010200057968D919C915897B12C029709F408C45A
:1010300056968C9156978F5F56968C9356975496EA
:101040002D913C915597232B19F0BB24B394F1C3F8
:101050008330D8F7ED91FC918281882309F4CEC3C7
:10106000FE0131963F01D601ED91FC918081918185
:10107000DC01ED91FC910084F185E02D09951816B5
:1010800019060CF0BBC345E050E0BE01695E7F4F1E
:10109000F601808191810E949B06009721F30597BC
:1010A00009F077C0888D998D982789279827998F7F
:1010B000888FEA8CFB8CFE24EF24FE24FB8EEA8EC4
:1010C000892B09F466C08F8981117AC00E94D904E6
:1010D000D60116966D937D938D939C931997579691
:1010E0002D913C918A8D9B8D232B09F065C0288D15
:1010F000398D2130310509F05FC089309105D1F17A
:10110000883C910519F0049709F049C00E94320704
:1011100063EC72E088ED93E00E947C02F601668148
:101120007781808591850685178520893189601BA7
:10113000710B820B930B4AE00E94EC066EEB72E09F
:1011400088ED93E00E946907F60186819781A0856A
:10115000B18586879787A08BB18B21E030E0308FF7
:10116000278BC6010E940E0E60E070E0CB010E944A
:10117000A60479CF0E9432076DEB73E088ED93E00F
:101180000E94690783E090E0D60158969C938E9365
:101190005797D601ED91FC911282B12C4AC30E945F
:1011A000320766EA73E088ED93E00E947C028A8D44
:1011B0009B8D0E945507EDCF059709F054CFE9CFDD
:1011C000B1E0EB16FB06A0F00E94320765E973E080
:1011D00088ED93E00E947C028A8D9B8D0E945507CA
:1011E000F601108E178A0190F081E02D12823BCF1C
:1011F000ADB6BEB6C70101962DB73EB7281B390B59
:101200000FB6F8943EBF0FBE2DBF0DB71EB70F5FD0
:101210001F4FA701B801D6018D919C910E949B069A
:101220008E159F0509F07DC0EA8DFB8DE00FF11F43
:1012300010820E94D904F6016683778380879187A4
:101240008F89813109F4C5C2A0F5863001F18F3054
:1012500009F4D1C0823099F5D60157968D919C91B1
:10126000892BA9F40E9432076FE873E088ED93E0C0
:101270000E94690721E030E0F601308F278BC6011C
:101280000E940E0E60E070E0CB010E94A604488D23
:10129000598DF12CE12C08EC10E030E020E060E00A
:1012A000C6010E94070D0FB6F894BEBE0FBEADBEBC
:1012B000DACE8D3189F258F4843109F49CC0F601FC
:1012C000108E178A0190F081E02D1282ECCF8932C6
:1012D00091F08733A1F78A8D9B8D892B21F30E9492
:1012E000320766E773E088ED93E00E947C02C80154
:1012F0000E944207D8CF84819581892B39F480E4FC
:1013000090E00E943C19F60195838483EA8CFB8C63
:10131000E00EF11E1A830983FC82EB820E151F0575
:1013200030F00FB6F894BEBE0FBEADBE32CF40E473
:1013300050E0B801D60114968D919C910E946320D3
:10134000D6011496ED91FC9117AEC3010E947D0762
:10135000FC018081918100E510E08E159F0568F405
:1013600089819A81009709F442C02B813C818217C0
:101370009307E8F50E947F1A8B010E9432076FE7FE
:1013800073E088ED93E00E947C02D60114966D9183
:101390007C916115710521F088ED93E00E94DD06D6
:1013A0006AE388ED93E00E940306C8010E94550796
:1013B000D601ED91FC911197128258961C921E92C3
:1013C00057970E94D904DC01CB0188589341A109A9
:1013D000B109F60182879387A487B58786839783AF
:1013E000A087B18786879787A08BB18B5CCF60E0A1
:1013F00070E0CB01C1CF888D998DD60155969C9315
:101400008E9354974A8C5B8C4801840C951C1D8FDD
:101410000C8F9F8E8E8E0815190508F05CC1F8019F
:10142000E080F180CE014C960E947D07DC018D9119
:101430009C918815990508F04EC18C8D9D8DFC01FD
:101440002081213459F401960E94611A4EE0342E15
:10145000380E069744F033243A9405C0CE014C96DA
:101460000E949007382EF6E7EF16F2E7FF0609F420
:1014700055C140F531E6E31632E7F30609F4EDC055
:1014800044E6E41642E7F40609F483C050E7E516A3
:101490005DE6F50609F086C18C8D9D8D8815990550
:1014A00008F019C1FC012081213409F03FC00196E8
:1014B0000E94611A3EE0F32EF80E0697E4F1FF2435
:1014C000FA9439C084E6E81687E7F80609F4AAC05A
:1014D00096E7E91697E7F90609F437C1A1E6EA1697
:1014E000A7E7FA0609F05EC1CE014C960E947D077F
:1014F000DC018D919C918815990508F0ECC061E0A4
:10150000832D0E943004CE014C960E9490078C01DE
:1015100061E0832D0E9430040115110509F498C083
:101520000F3F110509F0B2C061E093C0CE014C96A7
:101530000E949007F82ECE014C960E947D070C8DDC
:101540001D8D6FE471E0C8010E945A2060E0892B74
:1015500079F062E571E0C8010E945A20892B39F0C8
:1015600066E571E0C8010E945A20892B49F461E0C8
:101570008F2D0E943004CE014C960E947D078CCFA7
:101580006AE571E0C8010E945A20892BA1F762E048
:10159000EFCF7A8A698A1C8A1B8A20E130E03E8B71
:1015A0002D8B6DE571E0CE0141960E949F07032DC2
:1015B00010E0B801CE0141960E94C707F801EF5232
:1015C000FD4F8491F801E85EFB4FF4900C5F1B4FD8
:1015D000F801049160E070E0002389F081110E941D
:1015E000AD03E02FF0E0EE0FFF1FE051FC4FA5919F
:1015F000B491EC91FE2261E070E009F460E0CE016C
:1016000041960E94C7070B891C890150110929893D
:101610003A89F12CE12C50E040E064E1C6010E94DF
:10162000070D59C0CE014C960E947D07DC018D91BB
:101630009C918815990508F04EC061E0832D0E94A9
:101640003004CE014C960E94900761E0892B09F48A
:1016500060E0832D0E94D6033EC07A8A698A1C8A84
:101660001B8AE0E1F0E0FE8BED8B60E671E0CE01DD
:1016700041960E949F07632D70E0CE0141960E9423
:10168000C707832D0E946C04BC01B9CFE32DF0E0A5
:10169000EF52FD4FE491E33039F148F4E130B9F015
:1016A000E230E9F0003811050CF03ECFD1CFE73041
:1016B00029F1E83059F1E430A9F780918000806287
:1016C0008093800010938B0000938A0004C084B53F
:1016D000806884BD07BDF601158A148AE4CD84B5FF
:1016E000806284BD08BDF7CF8091800080688093C0
:1016F00080001093890000938800EDCF8091B000A6
:1017000080688093B0000093B300E5CF8091B00073
:1017100080628093B0000093B400DDCF3982BFE1D6
:10172000B315C8F2E32DF0E0EE0FFF1FEB51FD4FB4
:10173000259134912115310571F2E2E023343E0701
:1017400051F2C301F9010995C6CFCE014C960E9412
:101750007D078C8D9D8D9C01201B310B421A530AF5
:101760009A8389835C824B825E824D82398AFFE153
:10177000F31508F4B0CFE32DF0E0EE0FFF1FEB5DA3
:10178000FC4F259134912115310509F4A4CF42E095
:101790002234340709F49FCFB301CE014196F901F9
:1017A000099599CF0E94320765E673E088ED93E0D2
:1017B0000E947C02C8010E944207D60154964D91B6
:1017C0005C91F12CE12C02E010E030E020E060E0E0
:1017D00025CF8A8D9B8D800F911F1A8309839C834F
:1017E0008B830817190708F05ECDC3010E947D079F
:1017F000D60155961C921E92549755CD0E94D9043D
:101800002B013C01F60100811181D8011296BC9098
:1018100012978789908D8130910509F090C0B110A1
:101820002FC046865786608A718A108E178A129654
:101830001C92D60156968C915697815056968C9351
:101840008B2DE8A1F9A10FB6F894FEBF0FBEEDBF36
:10185000A1960FB6F894DEBF0FBECDBFDF91CF913A
:101860001F910F91FF90EF90DF90CF90BF90AF90BE
:101870009F908F907F906F905F904F903F900895D2
:1018800086819781A085B185A3019201281B390B20
:101890004A0B5B0BDA01C901893136EF9307A105C9
:1018A000B10570F00E9432076EED73E088ED93E0B1
:1018B0000E946907D60158961C921E9257976ACCCF
:1018C000893C9F4AA105B10598F4F601828593856C
:1018D000A485B585A3019201281B390B4A0B5B0B2C
:1018E000DA01C901893C9F4AA105B10508F4ADCBD5
:1018F000F60186859785A089B189A3019201281BED
:10190000390B4A0B5B0BDA01C90181379741A105FD
:10191000B10508F49ACBF12CE12C10E000E030E0A6
:1019200020E050E040E066E0C6010E94070DD601CD
:101930001E964D925D926D927C9251977ACF892B33
:1019400009F083CB86859785A089B189481A590A01
:101950006A0A7B0ABB20D1F0F1E74F16F7E15F0678
:101960006104710408F471CB0E94320760ED73E0EA
:1019700088ED93E00E946907D601ED91FC911197E3
:10198000128258961C921E92579707CCB9E84B16B4
:10199000B3E15B066104710408F457CB0E9432077F
:1019A00060EB72E088ED93E00E946907F8018081A6
:1019B0009181DC01ED91FC910680F781E02D099584
:1019C00081E0F801828381E090E0D60153969C93F8
:1019D0008E93529712962D913C91F901019000201F
:1019E000E9F731978F01021B130BF12CE12C41E039
:1019F00050E06DE1C6010E94070DF60182859385D6
:101A0000A485B58586879787A08BB18B1ECB2F9237
:101A10003F924F925F927F928F929F92AF92BF922E
:101A2000CF92DF92EF92FF920F931F93CF93DF93AA
:101A300000D000D01F92CDB7DEB77C01762E6A01B0
:101A40005901DC01ED91FC918281882309F4AFC03A
:101A5000862F8D7F09F4DDC0B6E06B1709F4D9C07D
:101A6000EDE16E1709F4D5C0D70157968D919C9181
:101A7000019709F09CC0452B81F4F701C488D588F3
:101A8000C114D10451F482899389019609F4A6C046
:101A9000938B828BF701C288D38884EF870D8930BE
:101AA000B0F5D7011A964D915D916D917C911D977E
:101AB00016968D919D910D90BC91A02D8417950740
:101AC000A607B70710F4DB01CA011C012D01E2E4EF
:101AD0002E0E311C411C511C0E94D904A2019101FF
:101AE000261B370B480B590BDA01C901B7FD7BC028
:101AF000C7010E94EC070E94D904A2019101261B94
:101B0000370B480B590BDA01C901B7FFF1CF480178
:101B1000B5E08B0E911CA114B10419F485E0882E58
:101B2000912C7982DC24CD24DC24DB82CA82902FA4
:101B3000812F9D838C83D701ED91FC9180819181D0
:101B4000DC01ED91FC910280F381E02D45E050E055
:101B5000BE016F5F7F4F099560E070E0CB010E948E
:101B6000A604772009F448C00115110509F444C002
:101B7000D701ED91FC9180819181DC01ED91FC9187
:101B80000280F381E02DA801B50109950B5F1F4F7D
:101B900060E070E0CB010E94A6048016910679F106
:101BA000F701108E178A0190F081E02D12820F90BC
:101BB0000F900F900F900F90DF91CF911F910F9189
:101BC000FF90EF90DF90CF90BF90AF909F908F905D
:101BD0007F905F904F903F902F90089581E090E02C
:101BE000938B828B57CFD70156968C9181118FCFD3
:101BF000C7010E94EC078BCF05E010E0CECF0E941A
:101C0000D904D7011A966D937D938D939C931D975C
:101C1000CECFC114D10409F07ACF2FCFCF92DF926B
:101C2000EF92FF920F931F93CF93DF93CDB7DEB761
:101C3000C55AD1090FB6F894DEBF0FBECDBF6C01F7
:101C400045E650E06DEA71E0CE0101960E94A61AC9
:101C5000CE018A599F4F7C0105E610E09E012F5F5F
:101C60003F4F50E040E061E1C6010E94070DCB55B7
:101C7000DF4F0FB6F894DEBF0FBECDBFDF91CF911F
:101C80001F910F91FF90EF90DF90CF900895EF920A
:101C9000FF920F931F93CF93DF93CDB7DEB7C65854
:101CA000D1090FB6F894DEBF0FBECDBF7C018B010A
:101CB000CE010196CF57DF4F99838883C158D0401A
:101CC000CD57DF4F19821882C358D04080E890E08A
:101CD000CB57DF4F99838883C558D04063E671E0C6
:101CE000CE018F579F4F0E949F07B701CE018F579C
:101CF0009F4F0E94C707B801CE018F579F4F0E9488
:101D0000C707CD57DF4F08811981C358D040015014
:101D10001109CF57DF4F28813981C158D040F12CAC
:101D2000E12C50E040E064E18CEB93E00E94070D71
:101D3000CA57DF4F0FB6F894DEBF0FBECDBFDF919D
:101D4000CF911F910F91FF90EF900895CF92DF9266
:101D5000EF92FF920F931F93CF93DF93CDB7DEB730
:101D6000C75AD1090FB6F894DEBF0FBECDBF8C01A4
:101D70006A017B01CE010196CE55DF4F998388839E
:101D8000C25AD040CC55DF4F19821882C45AD04075
:101D900080E890E0CA55DF4F99838883C65AD040C7
:101DA00063E671E0CE018E559F4F0E949F07B801F8
:101DB000CE018E559F4F0E94C7078E010F571F4FB0
:101DC00023E045E0C701B6010E941E19B801CE010B
:101DD0008E559F4F0E949F07CC55DF4F0881198178
:101DE000C45AD04001501109CE55DF4F28813981A6
:101DF000C25AD040F12CE12C50E040E064E18CEB81
:101E000093E00E94070DC955DF4F0FB6F894DEBF6F
:101E10000FBECDBFDF91CF911F910F91FF90EF903B
:101E2000DF90CF9008954F925F926F927F928F9242
:101E30009F92AF92BF92CF92DF92EF92FF92CF9399
:101E4000DF93CDB7DEB764970FB6F894DEBF0FBE51
:101E5000CDBF8EE00E946C04BC01990F880B990BDA
:101E60000E94551E6B017C01AC019B010E94BD1FAD
:101E7000882349F165E671E08AEC91E00E946907E8
:101E800020E932EB41E25CE36D857E858F859889A0
:101E90000E940A1F698B7A8B8B8B9C8B0E94E504B6
:101EA000882351F08091AF038B3030F08D3020F1DA
:101EB0008551823008F44FC0412C512C40EC642EE7
:101EC0004FE7742E37C020E030EC4FE754E4C701F1
:101ED000B6010E94E11D2CE53FE842EC5DE30E9463
:101EE000701D2CEB34E743E15CE30E94E11D6D873C
:101EF0007E878F87988BC4CF6091AA0370E090E0B3
:101F000080E00E94551E2DEC3CEC4CEC5DE30E9401
:101F10000A1F6B017C016091A90370E090E080E0F2
:101F20000E94551E9B01AC01C701B6010E94701DA5
:101F30002B013C010E94E504882341F08091AF030E
:101F40008C3009F402C2C8F48B3089F180E090E053
:101F5000A0ECBFE721C26091A9037091AA03762784
:101F60006727762790E080E00E94531E2DEC3CEC22
:101F70004CEC5DE30E940A1FDBCF8551823030F7C5
:101F80009091AB039D83692F70E0762F66276627BB
:101F90007F778091AC03682B90E080E00E94531E15
:101FA0002DEC3CEC4CEC5DE30E940A1FEBC1609110
:101FB000AB0370E090E080E00E94531E6B017C0157
:101FC0002091AC03298327FF0AC0AC019B0160E08C
:101FD00070E080E89FEB0E946F1D6B017C0189819E
:101FE0008F708983682F70E090E080E00E94551E1A
:101FF0002DEC3CEC4CEC5DE30E940A1FA70196011E
:102000000E94701D69837A838B839C8326E636E663
:1020100046EE5FE369817A818B819C810E940A1F71
:1020200020E030E040E052E40E94701D6B017C0132
:1020300020E030E048E852E40E946F1D2AE939E9C7
:1020400049E95FE30E940A1F4B015C0120E030E098
:1020500044E752E4C701B6010E94701D9B01AC0128
:10206000C501B4010E94701D4B015C0122E133E8FF
:1020700040EC5DE3C301B2010E940A1F9B01AC0169
:10208000C501B4010E94701D20E030E040E05FE334
:102090000E940A1F4B015C0120E030E04EE952E44F
:1020A0000E94051F18160CF013C1A7019601C70165
:1020B000B6010E940A1F6D837E838F839887A301D8
:1020C0009201C301B2010E940A1F69877A878B8738
:1020D0009C8721E133E243E050E4C701B6010E944E
:1020E0000A1F29E134E849E252E40E946F1D4B01C6
:1020F0005C0126E13BE442E251E4C301B2010E94EB
:102100000A1F9B01AC01C501B4010E94701D4B0167
:102110005C0128E436E246E65EEBC701B6010E94A8
:102120000A1FA30192010E940A1F9B01AC01C50175
:10213000B4010E94701D4B015C0120EE3FE040EEB7
:102140005BEB6D817E818F8198850E940A1F9B01C8
:10215000AC01C501B4010E94701D4B015C0128EF68
:1021600037E840E65DEB69857A858B859C850E9422
:102170000A1F9B01AC01C501B4010E94701D4B01F7
:102180005C012CEA3DE041EA5AE36D817E818F815A
:1021900098850E940A1FA30192010E940A1F9B01B9
:1021A000AC01C501B4010E94701D4B015C0128EC1B
:1021B0003FE84FE55AE3C701B6010E940A1F29858F
:1021C0003A854B855C850E940A1F9B01AC01C501C5
:1021D000B4010E94701D4B015C0121EF3BE845E01A
:1021E00056EB6D817E818F8198850E940A1F29851B
:1021F0003A854B855C850E940A1F9B01AC01C50195
:10220000B4010E94701D4B015C0120E030E040E50C
:1022100051E4C301B2010E94DC1D87FFCBC020E066
:1022200030E040EA52E4C701B6010E94051F87FD75
:10223000C1C020E030E040EE52E4C701B6010E9488
:10224000DC1D18160CF4C9C2A301920160E070E015
:1022500080E591E40E946F1D20E030E040E85EE3FD
:102260000E940A1F6D837E838F83988720E030E071
:102270004EEB52E4C701B6010E946F1D6B017C0159
:1022800020E030E0A9010E94051F18160CF089C05B
:10229000A701960160E070E088E891E40E946F1D5C
:1022A0002EE33DEE40E75DE30E940A1F0E947D1F82
:1022B0009B01AC016D817E818F8198850E940A1FF0
:1022C0009B01AC01C501B4010E946F1D4B015C0173
:1022D00020E030E040E052E4C501B4010E946F1DEF
:1022E00026E838E34EE05FE30E940A1F6B017C01A1
:1022F000A3019201C301B2010E94BD1F81110BC055
:1023000029813A814B815C81CA01B9010E94BD1FBC
:10231000882309F49EC065E871E08AEC91E0649638
:102320000FB6F894DEBF0FBECDBFDF91CF91FF9007
:10233000EF90DF90CF90BF90AF909F908F907F9065
:102340006F905F904F900C9469079091AB039D83C1
:10235000692F70E090E080E00E94531E6B017C01C9
:102360006091AC036F7070E090E080E00E94551EB9
:102370002DEC3CEC4CEC5DE30E940A1FA70196019A
:102380000E94701D69837A838B839C83AD81A7FF34
:102390003DCEDC01CB01B05889839A83AB83BC83EB
:1023A00035CE20E030E048E851E4C701B6010E9494
:1023B000701D76CF20E030E04AEA52E4C301B2015A
:1023C0000E94051F18160CF083CF20E030E040EA91
:1023D00052E4C701B6010E94051F87FD79CF20E0B6
:1023E00030E04EEA52E4C701B6010E94DC1D181627
:1023F0000CF46ECF20E030E04AEA52E4C301B201AF
:102400000E946F1D2DEC3CEC4CEC5DE30E940A1F1A
:102410006D837E838F839887A701960160E070E0CB
:102420008EEA92E40E946F1D2DEC3CEC4CE45EE3DE
:102430000E940A1F9B01AC016D817E818F8198856E
:102440000E940A1F9B01AC01C501B4010E94701DCE
:102450003DCF20E030E0A901C701B6010E94051F71
:1024600087FD24C020E030E044E252E4C701B60119
:102470000E94DC1D87FF1AC061E082E00E94D60343
:1024800085E00E94040460E083E00E94D60360E0DF
:1024900084E00E94D60361E070E086E090E00E9454
:1024A000470E70E060E087E090E02DC020E030E073
:1024B00044E252E4C701B6010E94051F87FD2AC00D
:1024C00020E030E048E552E4C701B6010E94DC1D7F
:1024D00087FF20C061E083E00E94D60385E00E9470
:1024E000040460E082E00E94D60360E084E00E9481
:1024F000D60361E070E087E090E00E94470E70E054
:1025000060E086E090E00E94470E70E060E088E0C6
:1025100090E02EC020E030E04CE552E4C701B60167
:102520000E94051F87FD3BC161E084E00E94D60345
:1025300080910001853009F455C08F3F09F47EC0B9
:1025400060E082E00E94D60360E083E00E94D60350
:1025500061E070E088E090E00E94470E70E060E08B
:1025600086E090E00E94470E70E060E087E090E037
:102570000E94470E49815A816B817C8190E080E006
:102580000E94A60EB301A20181E090E00E94A60E77
:10259000B701A60183E090E00E94A60E4D855E85FE
:1025A0006F85788984E090E00E94A60E49895A8957
:1025B0006B897C8985E090E064960FB6F894DEBF65
:1025C0000FBECDBFDF91CF91FF90EF90DF90CF9006
:1025D000BF90AF909F908F907F906F905F904F9043
:1025E0000C94A60EEEE1F2E094919D8397FDA8CFA6
:1025F00061E085E00E943004BD81BB2309F48FC0F7
:102600002D81223009F0A2C08091B100887F8260C4
:102610008093B10087EC8093B3008FEF9FEFDC01D4
:102620008093C2019093C301A093C401B093C501EC
:102630008091700082608093700082CF85E08093EB
:102640000001EEE1F2E0A491AD83AF3F09F478CF51
:10265000A13029F158F0A23009F43FC0AD81A7FDA7
:102660006FCF61E085E00E943004CACF14BC15BC76
:1026700084B5826084BD85B5816085BDE9E0F4E004
:10268000E491F0E0EE0FFF1FE650FC4F859194912E
:10269000EDE1F4E0E491E0936D011D82A9CF109289
:1026A0008000109281008091810088608093810079
:1026B00080918100816080938100E9E0F4E0E49101
:1026C000F0E0EE0FFF1FE650FC4F85919491EDE195
:1026D000F4E0E491E0936C018BCF1092B000109283
:1026E000B1008091B00082608093B0008091B10011
:1026F00081608093B100E9E0F4E0E491F0E0EE0F56
:10270000FF1FE650FC4F859194919093C0018093F8
:10271000BF01EDE1F4E0E491E093C10169CF85B53B
:10272000887F826085BD87EC87BD8FEF9FEFDC01DE
:102730008093720190937301A0937401B09375011B
:1027400080916E00826080936E00FACE8D81813020
:10275000E9F480918100887F8160809381008FE31C
:1027600096E090938900809388008FEF9FEFDC01C3
:1027700080936E0190936F01A0937001B0937101EB
:1027800080916F00826080936F00DACE9D819230DD
:1027900021F09111D5CE8FE3C7CF8FE33CCF6CE40E
:1027A00071E08AEC91E00E94DD0666E671E08AEC59
:1027B00091E00E94DD0660E082E00E94D60360E0C6
:1027C00083E00E94D60360E084E00E94D60385E0A7
:1027D0000E94040470E060E060CE20E030E04AEA4D
:1027E00052E4C301B2010E94051F18160CF4F7CD84
:1027F0006FCD1F920F920FB60F9211242F933F931C
:102800004F935F936F937F938F939F93AF93BF93F8
:10281000EF93FF938091C2019091C301A091C401F5
:10282000B091C501892B8A2B8B2BD1F19091C101DD
:10283000E091BF01F091C001808189278083809160
:10284000C2019091C301A091C401B091C5011816B5
:1028500019061A061B069CF48091C2019091C301CF
:10286000A091C401B091C5010197A109B10980935C
:10287000C2019093C301A093C401B093C501FF911D
:10288000EF91BF91AF919F918F917F916F915F91E8
:102890004F913F912F910F900FBE0F901F90189561
:1028A000809100010E940404EACF1F920F920FB69C
:1028B0000F9211242F933F934F935F936F937F93C6
:1028C0008F939F93AF93BF93EF93FF938AEC91E025
:1028D0000E941E03FF91EF91BF91AF919F918F9145
:1028E0007F916F915F914F913F912F910F900FBE0C
:1028F0000F901F9018951F920F920FB60F921124F0
:102900002F938F939F93EF93FF93E091DA01F091D0
:10291000DB018081E091E001F091E10182FD1BC0CB
:1029200090818091E3018F5F8F732091E401821782
:1029300041F0E091E301F0E0E653FE4F958F809384
:10294000E301FF91EF919F918F912F910F900FBE17
:102950000F901F9018958081F4CF1F920F920FB6A1
:102960000F9211242F933F938F939F93AF93BF9315
:102970008091B7019091B801A091B901B091BA01CD
:102980003091B60123E0230F2D3758F50196A11D94
:10299000B11D2093B6018093B7019093B801A09325
:1029A000B901B093BA018091BB019091BC01A09193
:1029B000BD01B091BE010196A11DB11D8093BB0167
:1029C0009093BC01A093BD01B093BE01BF91AF91A4
:1029D0009F918F913F912F910F900FBE0F901F905D
:1029E000189526E8230F0296A11DB11DD2CF1F9284
:1029F0000F920FB60F9211242F933F934F935F9333
:102A00006F937F938F939F93AF93BF93EF93FF93B6
:102A1000E091C801F091C901309749F0A685B785CA
:102A20008585968D91FF14C09C918923A1F4FF9117
:102A3000EF91BF91AF919F918F917F916F915F9136
:102A40004F913F912F910F900FBE0F901F901895AF
:102A50009C91892361F7A389B4899C91858980958C
:102A600089238C93868997890197F1F7608D718D01
:102A7000A685B785558538E020E0CB010197F1F7B1
:102A8000822F90E095958795282F4C91452309F04A
:102A90002068315091F7868D81FD20958091C70186
:102AA00090E001968F7399273091C601381799F0FD
:102AB000A091C701B0E0AA58BE4F2C938093C701E4
:102AC000828D938D0197F1F7A389B4898C919589B3
:102AD000892B8C93ACCF868D8160868FF1CF10923D
:102AE000CD011092CC0188EE93E0A0E0B0E080939D
:102AF000CE019093CF01A093D001B093D1012CE2ED
:102B000031E03093CB012093CA0125EC30E03093C3
:102B1000D7012093D60124EC30E03093D9012093E3
:102B2000D80120EC30E03093DB012093DA0121EC76
:102B300030E03093DD012093DC0122EC30E0309373
:102B4000DF012093DE0126EC30E03093E101209399
:102B5000E0011092E3011092E4011092E50110925D
:102B6000E6011092DB031092DA038093DC0390936A
:102B7000DD03A093DE03B093DF038EE391E0909337
:102B8000D9038093D8031092EF031092EE031092B2
:102B9000F1031092F0031092F3031092F2031092DB
:102BA000F5031092F4036091F6036E7F6D7F6093DE
:102BB000F6036695617081E068278CE00E94D60379
:102BC00061E08CE00E943004E4E2F4E0E491E09300
:102BD000E803E0E1F4E0E491F0E0EE0FFF1FE650DF
:102BE000FC4F859194919093EA038093E90360E010
:102BF0008BE00E9430048091F60381FD04C061E007
:102C00008BE00E94D6038BE08093E403E3E2F4E0E0
:102C1000E491E093E503EFE0F4E0E491F0E0EE0FFF
:102C2000FF1FE051FC4F259134913093E70320932F
:102C3000E6031092D6031092D5031092D70325ED28
:102C400033E03093BD032093BC031092BF03109276
:102C5000BE031092C1031092C0031092C2031092DF
:102C6000C3031092C4031092C5031092C6031092BE
:102C7000C7031092C8031092C9031092CA0310929E
:102C8000CB031092CC031092CD031092CF0310927D
:102C9000CE031092D1031092D0031092D20310925F
:102CA000D4031092D3039AE09093AE038093AF03C2
:102CB000E2E2F4E0E491E093B003EEE0F4E0E491CA
:102CC000E093B10380E89EE3A0E0B0E08093B60318
:102CD0009093B703A093B803B093B9038FEF9FEF1E
:102CE0009093A8038093A7030895789484B5826095
:102CF00084BD84B5816084BD85B5826085BD85B5A0
:102D0000816085BD80916E00816080936E0010921D
:102D10008100809181008260809381008091810098
:102D20008160809381008091800081608093800029
:102D30008091B10084608093B1008091B000816087
:102D40008093B00080917A00846080937A008091B3
:102D50007A00826080937A0080917A00816080930B
:102D60007A0080917A00806880937A001092C10086
:102D7000E091DA01F091DB0182E08083E091D601FD
:102D8000F091D7011082E091D801F091D9018FEC38
:102D900080831092E201E091DE01F091DF0186E094
:102DA0008083E091DC01F091DD018081806180838E
:102DB000E091DC01F091DD01808188608083E09109
:102DC000DC01F091DD01808180688083E091DC018D
:102DD000F091DD0180818F7D80831092F30310924A
:102DE000F2031092F1031092F0031092EF0310928D
:102DF000EE038DE991E09093F5038093F4039091B5
:102E0000E403963108F047C02DEB30E03093EF0338
:102E10002093EE032BE931E03093F1032093F0038C
:102E20002CE231E03093F3032093F2032091680009
:102E300084E0983048F031E09E3008F430E081E0E2
:102E400001C0880F3A95EAF7822B809368002DE63F
:102E500030E0983050F02BE630E09E3030F02CE639
:102E600030E0963110F030E020E03093EC03209316
:102E7000EB03292F30E0983008F095C081E001C0C5
:102E8000880F9A95EAF78093ED038091F40390916F
:102E9000F5030197F1F78091F2039091F303892BE9
:102EA00049F1E091C801F091C90123E0E83DF20742
:102EB00009F1309739F0A389B4899C91858980956F
:102EC00089238C938091F6038E7F8093F603109272
:102ED000C7011092C60188ED93E09093C9018093D9
:102EE000C801E091EB03F091EC0380819091ED0338
:102EF000892B808381E091E09093BF038093BE0390
:102F00000E94D904DC01CB0188589341A109B10981
:102F10008093C6039093C703A093C803B093C903DB
:102F20008093C2039093C303A093C403B093C503DB
:102F30008093CA039093CB03A093CC03B093CD03AB
:102F40000E9432076FE172E088ED93E00E9469070A
:102F5000E091BC03F091BD038AEC91E09183808302
:102F6000E091BC03F091BD0312821092D403109241
:102F7000D3030E94D9046B017C018091D30390910B
:102F8000D4030197E9F00E94D9046C197D098E09D8
:102F90009F09603576448105910590F48CEB93E0B0
:102FA0000E94EC07EACF9E3040F42850310981E0BE
:102FB00001C0880F2A95EAF766CF2E503109F7CF66
:102FC0008091D3039091D403019751F662E08091F0
:102FD000AE030E9430040E94D904605D77408109ED
:102FE00091096093B2037093B3038093B4039093F9
:102FF000B50387E38093BB038091A7039091A80357
:1030000097FF18C00E94D904E7E6F2E047EA53E0D0
:1030100024E1DF01322F1D923A95E9F76083718335
:103020008283938374964E175F0799F71092A803D3
:103030001092A7038091A7039091A803409774F47E
:10304000E7E6F2E090E080E024813581232B09F46B
:10305000AEC00196749680319105B1F72224239475
:10306000312C8CEB93E00E94EC070E94D9042B01D9
:103070003C0107E612E0E8011B8A1A8A8C819D81D7
:10308000892B71F188809980AA80BB80C301B2012D
:10309000681979098A099B09C984DA84EB84FC845C
:1030A0006C157D058E059F05D8F0A70196010E943D
:1030B000FB1FC701B6010E94D71F860E971EA81ED0
:1030C000B91E88829982AA82BB828989882341F0AD
:1030D0002D853E852115310509F053C03B8A2A8A8A
:1030E000649693E0C73AD90739F6D80152968D9184
:1030F0009C915397892B99F11496ED91FC9115971A
:1031000018968C911897882309F44FC016968D91C4
:103110009C910995F80182899389029701F5809124
:10312000A7039091A803892BD1F084819581892BE5
:10313000B1F0D801E4E11D92EA95E9F70E94D904C3
:10314000D8016D937D938D939C9313978091A703E2
:103150009091A80301979093A8038093A7030C5E16
:103160001F4FC017D10709F6E0E0F0E0EF2B09F49C
:1031700078CF0E940A03882309F473CF0E940000CD
:1031800070CF8F8598898217930708F0A9CF3B8A63
:103190002A8A0196988B8F878217930708F4A0CF0D
:1031A00082E090E09B8B8A8B9BCF0995B3CF24E183
:1031B000289FE001299FD00D1124C959DD4F88EEC9
:1031C00093E0A0E0B0E089879A87AB87BC8783E172
:1031D0009FE09D838C831F821E8218861E861D861B
:1031E00081E0898B0E94D904688379838A839B83D9
:1031F0008091A7039091A80301969093A8038093D0
:10320000A7032CCF8EE391E09093D9038093D8034A
:103210008091C8019091C901885D934071F4E0915B
:10322000EB03F091EC0390818091ED03809589236D
:1032300080831092C9011092C8010895EF920F93F4
:103240001F93CF93DF93E80134E047FD34E1042E70
:10325000000C550B57FF03C0519541955109E32EC2
:10326000022F242FAE010E94F11ACE01DF91CF91DF
:103270001F910F91EF9008950F931F93CF93DF93BA
:103280008230910510F482E090E0E091F903F09132
:10329000FA0330E020E0B0E0A0E0309799F4211587
:1032A000310509F44AC0281B390B24303105D8F503
:1032B0008A819B816115710589F1FB01938382836A
:1032C000FE0111C0408151810281138148175907C5
:1032D000E0F04817590799F4109761F012960C9393
:1032E000129713961C933296CF01DF91CF911F91C5
:1032F0000F9108950093F9031093FA03F4CF211569
:10330000310551F04217530738F0A901DB019A014A
:10331000BD01DF01F801C1CFEF01F9CF9093FA03AE
:103320008093F903CDCFFE01E20FF31F81939193B8
:103330002250310939832883D7CF2091F703309168
:10334000F803232B41F4209124013091250130937F
:10335000F8032093F70320912201309123012115D6
:10336000310541F42DB73EB7409126015091270118
:10337000241B350BE091F703F091F803E217F307F4
:10338000A0F42E1B3F0B2817390778F0AC014E5FD5
:103390005F4F2417350748F04E0F5F1F5093F80317
:1033A0004093F703819391939FCFF0E0E0E09CCFAF
:1033B000CF93DF930097E9F0FC01329713821282DA
:1033C000A091F903B091FA03ED0130E020E01097ED
:1033D000A1F420813181820F931F2091F703309156
:1033E000F8032817390709F061C0F093F803E09358
:1033F000F703DF91CF910895EA01CE17DF07E8F5D3
:103400004A815B819E0141155105B1F7E901FB83BA
:10341000EA8349915991C40FD51FEC17FD0761F458
:10342000808191810296840F951FE9019983888399
:10343000828193819B838A83F0E0E0E012968D91F4
:103440009C9113970097B9F52D913C911197CD015F
:103450000296820F931F2091F7033091F8032817EB
:10346000390739F6309751F51092FA031092F903A3
:10347000B093F803A093F703BCCFD383C2834081FA
:103480005181840F951FC817D90761F44E5F5F4FB4
:1034900088819981480F591F518340838A819B817C
:1034A000938382832115310509F0B0CFF093FA039D
:1034B000E093F9039ECFFD01DC01C0CF138212829D
:1034C000D7CFFC0188279927E89421912032E9F38E
:1034D000293010F02E30C8F32B3241F02D3239F460
:1034E000689404C00E94CF1A820F911D219120532D
:1034F0002A30C0F31EF4909581959F4F08951F9335
:10350000FC0199278827BC01E89411911032E9F356
:10351000193010F01E30C8F31B3251F01D3249F43F
:10352000689406C00E94BA1A610F711D811D911D19
:10353000119110531A30B0F33EF490958095709528
:1035400061957F4F8F4F9F4F1F910895FB01DC01C5
:1035500002C005900D9241505040D8F70895BB2706
:103560004A3031F4992322F4BDE2909581959F4F22
:103570000C94D81A592F482F372F262F660F771FF4
:10358000881F991F660F771F881F991F620F731F6F
:10359000841F951F660F771F881F991F08957AE073
:1035A000979F902D879F802D910D11240895BB2703
:1035B000FB015527AA27880F991FAA1FA41710F0EF
:1035C000A41B83955051B9F7A05DAA3308F0A95DFB
:1035D000A193009779F7B111B1931192CB010C949B
:1035E000281DA9E0B0E0E7EFFAE10C943E1D6A0166
:1035F000F22EB02E102FFBE3AF2EA01608F41BE323
:103600001F5F012F27E0AE014F5F5F4F0E94501CEC
:10361000BC018981982F9970913009F43FC09BE2D9
:10362000E1FC04C09E2D9170E0FC3AC05E2D50710B
:10363000E82FE87083FF46C084E0911101C083E069
:10364000EF2DE81B8F1508F0E0E0D6018E2F20E269
:10365000552351F1992329F0D6019C93C601019677
:103660006C0196012D5F3F4FE2FE24C08EE4D6012F
:103670008C9391E411969C93119712968C93D90197
:103680008E2F90E281111BC0E20FF32FF11D1082EB
:103690008EEF9FEF2996ECE00C945A1D9DE2C6CF69
:1036A00090E2C4CF2D9381508111FCCFCE0ED11C5E
:1036B000E0E0D0CF8EE6D6018C9391E6DBCF9D93F0
:1036C0008150E0CF482F447082FF3DC084E09111CB
:1036D00001C083E08F1510F4EF2DE81BD6018E2F6B
:1036E00020E2552309F1992329F0D6019C93C601C4
:1036F00001966C0196012D5F3F4FE2FE1BC089E4ED
:10370000D6018C938EE411968C93119786E41296D1
:103710008C93D9018E2F90E2882309F4B5CF9D9325
:103720008150FACF2D9381508111FCCFCE0ED11C48
:10373000E0E0D9CF89E6D6018C938EE611968C9382
:10374000119786E6E4CF9B0177FF02C030E020E0CE
:10375000A1E0B0E0911102C0B0E0A0E0F901319623
:10376000AE0FBF1F8B2C912CBB2009F461C05401FC
:10377000EFEFAE1ABE0AAA0DBB1DFA161B0619F012
:1037800014F04F2D4A1B511188C0E3FC59C076013B
:10379000A42FB0E2A1114FC0C40ED11C992309F48B
:1037A0005BC040E0D6011196F60190836D01552370
:1037B00009F448C0012F060F9A81582F507184FFD9
:1037C00003C0913309F4015010160CF047C00930C2
:1037D00008F008E0EEE2FE2E5B01A01AB1088501B8
:1037E0009194819491082F3F320729F4D601FC92DD
:1037F000F60131966F016217730794F102171307F0
:103800007CF5DB01A21BB30BAA24A394B12CAC0E54
:10381000BD1EAA0DBB1D11968C9121503109D601F8
:10382000119628153905F4F0F60180836D01DBCF80
:10383000B12CA12CA0CFF701B1937F01A150AACF49
:103840009111B0CFD601942F50E302C05D939150F7
:103850009111FCCFC40ED11C40E0ACCF01E0BACF37
:1038600080E3DBCF6217730731F4963388F4953326
:1038700011F4552369F0F6018083FD01842F90E255
:10388000811108C0A40FB11D1C9290E080E002CF0E
:1038900081E3F1CF91938150F3CF911183CF8ACF00
:1038A000283008F027E03327DA01990F311D87FD12
:1038B000916000966105710539F432602E5F3D9389
:1038C00030E32A95E1F708959F3F30F08038710585
:1038D000610509F03C5F3C5F3D93913008F08068E2
:1038E000911DDF93CF931F930F93FF92EF92192FA8
:1038F000987F9695E92F96959695E90FFF27EE53B9
:10390000FF4F99273327EE24FF24A701E7010590F5
:103910000894079428F4360FE71EF81E491F511D1E
:10392000660F771F881F991F0694A1F705900794CB
:1039300028F4E70EF81E491F561FC11D770F881F78
:10394000991F661F0694A1F70590079428F4F80EB6
:10395000491F561FC71FD11D880F991F661F771F4C
:103960000694A1F70590079420F4490F561FC71F2E
:10397000D81F990F661F771F881F0694A9F7849197
:103980001095177041F0D695C79557954795F794C0
:10399000E7941A95C1F7E8E6F0E068941590159160
:1039A00035916591959105907FE27395E118F10A43
:1039B000430B560BC90BD009C0F7E10CF11E431F96
:1039C000561FC91FD01D7EF4703311F48A95E6CFBF
:1039D000E894015030F0080F0AF40027021708F4A9
:1039E000202F2395022F7A3328F079E37D932A95AF
:1039F000E9F710C07D932A9589F606949795679507
:103A0000379517951794E118F10A430B560BC90B1C
:103A1000D00998F023957E9173957A3308F070E37E
:103A20007C932013B8F77E9170617D9330F083957D
:103A300071E37D9370E32A95E1F71124EF90FF90F5
:103A40000F911F91CF91DF91992787FD9095089550
:103A5000DC01FC01672F71917723E1F7329704C0F5
:103A60007C916D9370836291AE17BF07C8F3089580
:103A70002F923F924F925F926F927F928F929F927E
:103A8000AF92BF92CF92DF92EF92FF920F931F936C
:103A9000CF93DF93CDB7DEB7CA1BDB0B0FB6F8941D
:103AA000DEBF0FBECDBF09942A88398848885F845D
:103AB0006E847D848C849B84AA84B984C884DF80CE
:103AC000EE80FD800C811B81AA81B981CE0FD11DB2
:103AD0000FB6F894DEBF0FBECDBFED01089550586C
:103AE000BB27AA270E94871D0C94CB1E0E94BD1ED7
:103AF00038F00E94C41E20F039F49F3F19F426F4D8
:103B00000C94BA1E0EF4E095E7FB0C94B41EE92F5A
:103B10000E94DC1E58F3BA176207730784079507E3
:103B200020F079F4A6F50C94FE1E0EF4E0950B2E11
:103B3000BA2FA02D0B01B90190010C01CA01A001FF
:103B40001124FF27591B99F0593F50F4503E68F15A
:103B50001A16F040A22F232F342F4427585FF3CF9B
:103B6000469537952795A795F0405395C9F77EF46C
:103B70001F16BA0B620B730B840BBAF09150A1F0B5
:103B8000FF0FBB1F661F771F881FC2F70EC0BA0F3B
:103B9000621F731F841F48F4879577956795B795C3
:103BA000F7959E3F08F0B0CF9395880F08F09927BE
:103BB000EE0F9795879508950E94901E08F481E076
:103BC00008950E94F51D0C94CB1E0E94C41E58F04F
:103BD0000E94BD1E40F029F45F3F29F00C94B41EF2
:103BE00051110C94FF1E0C94BA1E0E94DC1E68F347
:103BF0009923B1F3552391F3951B550BBB27AA27A6
:103C000062177307840738F09F5F5F4F220F331FDF
:103C1000441FAA1FA9F335D00E2E3AF0E0E832D0A7
:103C200091505040E695001CCAF72BD0FE2F29D0AA
:103C3000660F771F881FBB1F261737074807AB077C
:103C4000B0E809F0BB0B802DBF01FF2793585F4FF1
:103C50003AF09E3F510578F00C94B41E0C94FF1E70
:103C60005F3FE4F3983ED4F3869577956795B795D3
:103C7000F7959F5FC9F7880F911D9695879597F9DE
:103C80000895E1E0660F771F881FBB1F6217730757
:103C90008407BA0720F0621B730B840BBA0BEE1F6C
:103CA00088F7E0950895E89409C097FB3EF4909555
:103CB0008095709561957F4F8F4F9F4F9923A9F005
:103CC000F92F96E9BB279395F69587957795679594
:103CD000B795F111F8CFFAF4BB0F11F460FF1BC0D8
:103CE0006F5F7F4F8F4F9F4F16C0882311F096E96B
:103CF00011C0772321F09EE8872F762F05C0662319
:103D000071F096E8862F70E060E02AF09A95660FD1
:103D1000771F881FDAF7880F9695879597F908958A
:103D2000990F0008550FAA0BE0E8FEEF16161706CC
:103D3000E807F907C0F012161306E407F50798F034
:103D4000621B730B840B950B39F40A2661F0232B4D
:103D5000242B252B21F408950A2609F4A140A695C9
:103D60008FEF811D811D089597F99F6780E870E0AE
:103D700060E008959FEF80EC089500240A941616E1
:103D8000170618060906089500240A941216130649
:103D9000140605060895092E0394000C11F48823D7
:103DA00052F0BB0F40F4BF2B11F460FF04C06F5FF3
:103DB0007F4F8F4F9F4F089557FD9058440F551FC9
:103DC00059F05F3F71F04795880F97FB991F61F09D
:103DD0009F3F79F087950895121613061406551F14
:103DE000F2CF4695F1DF08C0161617061806991F80
:103DF000F1CF86957105610508940895E894BB2775
:103E000066277727CB0197F908950E94901E08F442
:103E10008FEF08950E941D1F0C94CB1E0E94BD1EA3
:103E200038F00E94C41E20F0952311F00C94B41EAB
:103E30000C94BA1E11240C94FF1E0E94DC1E70F319
:103E4000959FC1F3950F50E0551F629FF001729F3F
:103E5000BB27F00DB11D639FAA27F00DB11DAA1F4E
:103E6000649F6627B00DA11D661F829F2227B00D9B
:103E7000A11D621F739FB00DA11D621F839FA00D26
:103E8000611D221F749F3327A00D611D231F849F76
:103E9000600D211D822F762F6A2F11249F575040CD
:103EA0009AF0F1F088234AF0EE0FFF1FBB1F661F48
:103EB000771F881F91505040A9F79E3F510580F011
:103EC0000C94B41E0C94FF1E5F3FE4F3983ED4F3B1
:103ED000869577956795B795F795E7959F5FC1F7B5
:103EE000FE2B880F911D9695879597F9089519F4E3
:103EF00016F40C94BA1E0C94C21F0E94E41EB8F370
:103F00009923C9F3B6F39F57550B87FF0E94D01F23
:103F10000024A0E640EA900180585695979528F431
:103F2000805C660F771F881F20F026173707480729
:103F300030F4621B730B840B202931294A2BA69580
:103F400017940794202531254A2758F7660F771FC5
:103F5000881F20F026173707480730F4620B730BD1
:103F6000840B200D311D411DA09581F7B901842FCF
:103F70009158880F9695879508950E94901E880BFA
:103F8000990B08959F3F31F0915020F487957795D4
:103F90006795B795880F911D9695879597F9089520
:103FA00091505040660F771F881FD2F70895DB01AC
:103FB0008F939F930E941D20BF91AF91A29F800D70
:103FC000911DA39F900DB29F900D1124089597FB12
:103FD000072E16F4009407D077FD09D00E94282000
:103FE00007FC05D03EF4909581959F4F08957095FC
:103FF00061957F4F0895A1E21A2EAA1BBB1BFD01FC
:104000000DC0AA1FBB1FEE1FFF1FA217B307E407B7
:10401000F50720F0A21BB30BE40BF50B661F771F0F
:10402000881F991F1A9469F76095709580959095EF
:104030009B01AC01BD01CF0108950E944220A59FC4
:10404000900DB49F900DA49F800D911D1124089593
:10405000AA1BBB1B51E107C0AA1FBB1FA617B707AE
:1040600010F0A61BB70B881F991F5A95A9F78095CA
:104070009095BC01CD010895EE0FFF1F0590F491BE
:10408000E02D0994A29FB001B39FC001A39F700DC2
:10409000811D1124911DB29F700D811D1124911D50
:1040A0000895FB01DC0102C001900D924150504087
:1040B000D8F70895FB01DC018D9101908019011062
:1040C000D9F3990B0895FB01DC014150504048F0B1
:1040D00001900D920020C9F701C01D92415050403F
:1040E000E0F7089512E0C7E1D2E004C0FE010E94AB
:1040F0003C202196C831D107C9F7F894FFCFFF5271
:10410000595F44316F5438747378667555534A5605
:10411000574C34554771445A4242376561766E00B8
:104120000000FB038000000000004003A002CD025D
:104130008D03FE02DC02F002000000000306A00274
:10414000980643025F067706EB050D0A00696E00CC
:104150006F75740070776D0070750064770061771B
:0A416000007677004572726F72005E
:107E0000112484B714BE81FFF0D085E080938100F7
:107E100082E08093C00088E18093C10086E0809377
:107E2000C20080E18093C4008EE0C9D0259A86E02C
:107E300020E33CEF91E0309385002093840096BBD3
:107E4000B09BFECF1D9AA8958150A9F7CC24DD24C4
:107E500088248394B5E0AB2EA1E19A2EF3E0BF2EE7
:107E6000A2D0813461F49FD0082FAFD0023811F036
:107E7000013811F484E001C083E08DD089C08234E0
:107E800011F484E103C0853419F485E0A6D080C0E4
:107E9000853579F488D0E82EFF2485D0082F10E0AE
:107EA000102F00270E291F29000F111F8ED06801E7
:107EB0006FC0863521F484E090D080E0DECF843638
:107EC00009F040C070D06FD0082F6DD080E0C81688
:107ED00080E7D80618F4F601B7BEE895C0E0D1E017
:107EE00062D089930C17E1F7F0E0CF16F0E7DF06D8
:107EF00018F0F601B7BEE89568D007B600FCFDCFD4
:107F0000A601A0E0B1E02C9130E011968C91119780
:107F100090E0982F8827822B932B1296FA010C0160
:107F200087BEE89511244E5F5F4FF1E0A038BF0790
:107F300051F7F601A7BEE89507B600FCFDCF97BE46
:107F4000E89526C08437B1F42ED02DD0F82E2BD052
:107F50003CD0F601EF2C8F010F5F1F4F84911BD097
:107F6000EA94F801C1F70894C11CD11CFA94CF0C13
:107F7000D11C0EC0853739F428D08EE10CD085E9AC
:107F80000AD08FE07ACF813511F488E018D01DD067
:107F900080E101D065CF982F8091C00085FFFCCF94
:107FA0009093C60008958091C00087FFFCCF809118
:107FB000C00084FD01C0A8958091C6000895E0E648
:107FC000F0E098E1908380830895EDDF803219F02E
:107FD00088E0F5DFFFCF84E1DECF1F93182FE3DFCA
:107FE0001150E9F7F2DF1F91089580E0E8DFEE27F6
:047FF000FF270994CA
:027FFE00040479
:00000001FF
