:100000000C9485000C94AD000C94AD000C94AD00E4
:100010000C94AD000C94AD000C94AD000C94AD00AC
:100020000C94AD000C94AD000C94AD000C94AD009C
:100030000C94AD000C94AD000C94AD000C94AD008C
:100040000C94D7050C94AD000C94A5050C947F0579
:100050000C94AD000C94AD000C94AD000C94AD006C
:100060000C94AD000C94AD000000000024002700AB
:100070002A004661696C656420746F207265616452
:100080002066726F6D204D50582073656E736F72CD
:1000900021003B003B003B004661696C65642074B5
:1000A0006F20726561642066726F6D204448542031
:1000B00073656E736F722100000000002500280038
:1000C0002B000000000800020100000304070000EC
:1000D00000000000000000000000230026002900AE
:1000E00004040404040404040202020202020303DE
:1000F00003030303010204081020408001020408E6
:100100001020010204081020210611241FBECFEF89
:10011000D8E0DEBFCDBF21E0AEE3B1E001C01D926B
:10012000AB3FB207E1F711E0A0E0B1E0E4EFFAE1A4
:1001300002C005900D92AE33B107D9F710E0C5E8C3
:10014000D0E004C02197FE010E94800BC438D10783
:10015000C9F70E946E060C94780D0C940000CF92A3
:10016000DF92EF92FF92CF93DF93B091EB01A0E08B
:100170008111AB2F8091EC0190E0880F991FAC01A9
:100180004A525F4FC090F101D090F201E090F3012C
:10019000F090F40130E020E0FA01C591D491E881BB
:1001A000B90190E080E0EB23EA130AC02F5F3F4FD4
:1001B0006C157D058E059F0578F36FEF7FEFCB0102
:1001C000DF91CF91FF90EF90DF90CF900895AF92A5
:1001D000BF92CF92DF92EF92FF920F931F93CF9334
:1001E000DF936C017B018B01040F151FEB015E0196
:1001F000AE18BF08C017D10759F06991D601ED912B
:10020000FC910190F081E02DC6010995892B79F7C9
:10021000C501DF91CF911F910F91FF90EF90DF907B
:10022000CF90BF90AF900895FC01538D448D252F42
:1002300030E0842F90E0821B930B541710F0CF9680
:10024000089501970895FC01918D828D981761F0B2
:10025000A28DAE0FBF2FB11D5D968C91928D9F5FC9
:100260009F73928F90E008958FEF9FEF0895FC01A8
:10027000918D828D981731F0828DE80FF11D858D5B
:1002800090E008958FEF9FEF0895FC01918D228DEE
:10029000892F90E0805C9F4F821B91098F73992773
:1002A000089587E491E00E94450121E0892B09F43B
:1002B00020E0822F089580E090E0892B29F00E94B1
:1002C000510181110C9400000895FC01A48DA80F28
:1002D000B92FB11DA35ABF4F2C91848D90E0019688
:1002E0008F739927848FA689B7892C93A089B189A8
:1002F0008C91837080648C93938D848D981306C049
:100300000288F389E02D80818F7D80830895EF92AC
:10031000FF920F931F93CF93DF93EC0181E0888FBF
:100320009B8D8C8D98131AC0E889F989808185FF8F
:1003300015C09FB7F894EE89FF896083E889F98931
:1003400080818370806480839FBF81E090E0DF9133
:10035000CF911F910F91FF90EF900895F62E0B8D86
:1003600010E00F5F1F4F0F731127E02E8C8D8E1141
:100370000CC00FB607FCFACFE889F989808185FFA8
:10038000F5CFCE010E946501F1CFEB8DEC0FFD2F73
:10039000F11DE35AFF4FF0829FB7F8940B8FEA8963
:1003A000FB8980818062CFCF0F931F93CF93DF9320
:1003B0008C01D0E0C0E0F801EC0FFD1F64916623D2
:1003C00041F087E491E00E948701892B11F021968A
:1003D000F2CFCE01DF91CF911F910F910895CF936E
:1003E000DF93EC01888D8823B9F0AA89BB89E8895D
:1003F000F9898C9185FD03C0808186FD0DC00FB603
:1004000007FCF7CF8C9185FFF2CF808185FFEDCF80
:10041000CE010E946501E9CFDF91CF910895CF937E
:10042000DF9390E0FC01EC50FF4F249180529F4FEE
:10043000FC0184918823D1F090E0880F991FFC0182
:10044000E859FF4FA591B491FC01E854FF4FC591C5
:10045000D491623071F49FB7F8943C91822F8095CB
:1004600083238C93E8812E2B28839FBFDF91CF912C
:1004700008958FB7F894EC912E2B2C938FBFF6CF65
:100480003FB7F89480913F0190914001A0914101C4
:10049000B091420126B5A89B05C02F3F19F00196E7
:1004A000A11DB11D3FBFBA2FA92F982F8827BC01CE
:1004B000CD01620F711D811D911D42E0660F771FF6
:1004C000881F991F4A95D1F708958F929F92AF92F6
:1004D000BF92CF92DF92EF92FF924B015C010E949C
:1004E00040026B017C010E9440026C197D098E095B
:1004F0009F09683E734081059105A8F321E0821AA7
:100500009108A108B10888EEC80E83E0D81EE11C4E
:10051000F11C81149104A104B10429F7FF90EF901C
:10052000DF90CF90BF90AF909F908F9008958F9263
:100530009F92AF92BF92EF92FF920F931F93CF9330
:10054000DF93CDB7DEB7C054D1400FB6F894DEBF0D
:100550000FBECDBF2FB7F894809143019091440115
:10056000A0914501B09146012FBF4091ED015091FE
:10057000EE016091EF017091F0018C019D01041B6F
:10058000150B260B370BB901A801403D57406105FB
:100590007105A0F48091F501C05CDE4F0FB6F894B0
:1005A000DEBF0FBECDBFDF91CF911F910F91FF90A6
:1005B000EF90BF90AF909F908F9008958093ED0142
:1005C0009093EE01A093EF01B093F0011092E80137
:1005D0001092E7011092E6011092E5011092E401F9
:1005E00062E08091E9010E940F0261E070E080E02A
:1005F00090E00E94650261E08091E9010E940F0293
:100600008091E90190E0FC01EE53FF4F2491FC0141
:10061000EC50FF4F3491FC01E052FF4FE491EE2388
:10062000D9F0222359F0233009F44BC008F03EC022
:10063000213009F44CC0223009F44DC0F0E0EE0F37
:10064000FF1FE854FF4FA591B4918FB7F894EC9138
:1006500030953E233C938FBF8091EA0185518230D3
:1006600008F046C08BE291E10197F1F762E08091DA
:10067000E9010E940F028091F60190E0823091051D
:1006800038F0880F991F880F991F05970197F1F788
:10069000F89480E00E94AF006F3F7F4F8F4F9F4FD5
:1006A00071F51092F501789480E076CF2730B1F0A3
:1006B0002830D1F0243009F0C1CF809180008F7DA7
:1006C00003C0809180008F7780938000B7CF84B57E
:1006D0008F7784BDB3CF84B58F7DFBCF8091B00081
:1006E0008F778093B000AACF8091B0008F7DF9CF33
:1006F00064E170E080E090E00E946502B7CF81E0A5
:100700000E94AF006F3F7F4F8F4F9F4F51F2CE013E
:1007100001967C015E019FEBA91A9EEFB90A870141
:1007200080E00E94AF00F80160837183828393832D
:1007300081E00E94AF00F80164837583868397830C
:10074000085F1F4FA016B10659F7789430E020E0FB
:10075000F70180809180A280B380448155816681B9
:100760007781FFEF8F169F06AF06BF0631F04F3F30
:100770000FEF50076007700719F41092F50194CF3E
:10078000F90183E0F595E7958A95E1F7EC51FE4F85
:100790008081880F84169506A606B70618F1808317
:1007A0002F5F3F4F18E0E10EF11C2832310581F632
:1007B0004091E8012091E4018091E501280F332761
:1007C000331F8091E601280F311D8091E701820FD0
:1007D000932F911D99274817190679F681E0809388
:1007E000F501DACE8160DBCFFC0101900020E9F752
:1007F0003197AF01481B590BBC0187E491E00C9481
:10080000E7008F929F92AF92BF920F931F93CF9367
:10081000DF93CDB7DEB7A1970FB6F894DEBF0FBE5A
:10082000CDBF19A2423008F44AE08E010F5D1F4F80
:10083000842E912CB12CA12CA50194010E945E0B59
:10084000E62FB901CA01EA30F4F4E05DD801EE9375
:100850008D01232B242B252B79F790E080E0109736
:1008600019F0CD010E94F403A1960FB6F894DEBFF3
:100870000FBECDBFDF91CF911F910F91BF90AF9071
:100880009F908F900895E95CE1CF4F925F926F92B5
:100890007F928F929F92AF92BF92CF92DF92EF9210
:1008A000FF920F931F93CF936B017C01742EAC01C9
:1008B0009B010E94590B882399F088E191E0CF9128
:1008C0001F910F91FF90EF90DF90CF90BF90AF906E
:1008D0009F908F907F906F905F904F900C94F40357
:1008E00046015701E894B7F82FEF3FEF4FE75FE776
:1008F000C501B4010E94590B81110DC02FEF3FEFCC
:100900004FE75FE7C501B4010E94EB0818161CF41D
:100910008CE191E0D4CF2FEF3FEF4FE75FE4C701C9
:10092000B6010E94540B18161CF480E291E0C7CF68
:100930002FEF3FEF4FE75FECC701B6010E94EB08D6
:1009400087FDF3CF20E030E0A901C701B6010E9486
:10095000EB0810E000E087FF0AC06DE287E491E059
:100960000E9487018C01F7FAF094F7F8F094C0E048
:1009700060E070E080E09FE37C1641F020E030E032
:1009800040E251E40E94B30ACF5FF6CFA70196017F
:100990000E94470A2B013C010E94250B4B015C0180
:1009A0004AE00E9401047C01E00EF11ECC23C1F15B
:1009B000C501B4010E94F0089B01AC01C301B20162
:1009C0000E94460A4B015C016EE287E491E00E94BE
:1009D0008701E80EF91EC15018F120E030E040E236
:1009E00051E4C501B4010E9451092B013C010E9450
:1009F000250B4B01B12CA12C4AE0C501B4010E948A
:100A00000104E80EF91EC501B4010E94F0089B0123
:100A1000AC01C301B2010E94460A4B015C01DBCF6D
:100A2000C701CF911F910F91FF90EF90DF90CF9072
:100A3000BF90AF909F908F907F906F905F904F90FE
:100A400008950F931F93CF93DF93EC0188819981D1
:100A5000009759F02A813B812617370730F081E053
:100A6000DF91CF911F910F9108958B016F5F7F4FA1
:100A70000E94AB0C009759F0998388831B830A83EB
:100A80002C813D81232B59F7FC011082E8CF80E0B7
:100A9000E7CFEF92FF920F931F93CF93DF93EC0179
:100AA0007B01FB0101900020E9F731978F01061BC4
:100AB000170BB8010E94210528813981811113C0CB
:100AC0002115310519F0C9010E94220C19821882E2
:100AD0001D821C821B821A82DF91CF911F910F9180
:100AE000FF90EF9008951D830C83B701C901DF913A
:100AF000CF911F910F91FF90EF900C94710D1F9269
:100B00000F920FB60F9211242F933F934F935F9341
:100B10006F937F938F939F93AF93BF93EF93FF93C5
:100B200087E491E00E946501FF91EF91BF91AF9141
:100B30009F918F917F916F915F914F913F912F91F5
:100B40000F900FBE0F901F9018951F920F920FB627
:100B50000F9211242F938F939F93EF93FF93E09124
:100B60005701F09158018081E0915D01F0915E01A3
:100B700082FD1BC09081809160018F5F8F732091F7
:100B80006101821741F0E0916001F0E0E95BFE4F06
:100B9000958F80936001FF91EF919F918F912F919D
:100BA0000F900FBE0F901F9018958081F4CF1F9269
:100BB0000F920FB60F9211242F933F938F939F9311
:100BC000AF93BF938091430190914401A09145015F
:100BD000B091460130913E0123E0230F2D3758F5A7
:100BE0000196A11DB11D20933E0180934301909376
:100BF0004401A0934501B093460180913F0190913B
:100C00004001A0914101B09142010196A11DB11D89
:100C100080933F0190934001A0934101B093420122
:100C2000BF91AF919F918F913F912F910F900FBEE8
:100C30000F901F90189526E8230F0296A11DB11D55
:100C4000D2CFE7E4F1E01382128288EE93E0A0E0D5
:100C5000B0E084839583A683B7838AE091E0918393
:100C6000808385EC90E09587848784EC90E097877B
:100C7000868780EC90E0918B808B81EC90E0938B69
:100C8000828B82EC90E0958B848B86EC90E0978B46
:100C9000868B118E128E138E148EA4EEB1E082E03C
:100CA00015968C9315978BE016968C931697E6EF16
:100CB000F0E0E4911796EC931797E2EEF0E0E49100
:100CC0001896EC93189740E85EE360E070E01D969C
:100CD0004D935D936D937C9350970895CF93DF93DD
:100CE000CDB7DEB72A970FB6F894DEBF0FBECDBFE3
:100CF000789484B5826084BD84B5816084BD85B5F7
:100D0000826085BD85B5816085BD80916E00816002
:100D100080936E00109281008091810082608093A8
:100D200081008091810081608093810080918000AA
:100D30008160809380008091B10084608093B100D5
:100D40008091B00081608093B00080917A008460CF
:100D500080937A0080917A00826080937A008091FB
:100D60007A00816080937A0080917A008068809315
:100D70007A001092C10060ED77E080E090E00E9480
:100D80006502E0915701F091580182E08083E09183
:100D90005301F09154011082E0915501F0915601F8
:100DA0008FEC808310925F01E0915B01F0915C0118
:100DB00086E08083E0915901F0915A018081806141
:100DC0008083E0915901F0915A018081886080838D
:100DD000E0915901F0915A01808180688083E0910F
:100DE0005901F0915A0180818F7D808362E080916A
:100DF000E9010E940F022FB7F8948091430190916E
:100E00004401A0914501B09146012FBF805D9740FC
:100E1000A109B1098093ED019093EE01A093EF0138
:100E2000B093F00187E38093F60161E083E00E94D4
:100E30000F0261E084E00E940F0230E4332E00E0F4
:100E400010E060ED77E080E090E00E9465020E9493
:100E50009702882349F08091EA018B3028F08D3089
:100E600050F085518230C0F1812C912C20ECA22EC3
:100E70002FE7B22E1EC06091E50170E090E080E0A7
:100E80000E94F2082DEC3CEC4CEC5DE30E94510911
:100E90006B017C016091E40170E090E080E00E94D1
:100EA000F2089B01AC01C701B6010E94470A4B0141
:100EB0005C010E949702882341F08091EA018C3006
:100EC00009F4ACC0D8F48B3091F1C12CD12C80EC5A
:100ED000E82E8FE7F82E55C06091E4017091E5018E
:100EE00076276727762790E080E00E94F0082DECB7
:100EF0003CEC4CEC5DE30E945109D9CF8551823026
:100F000020F77090E601672D70E0762F6627662740
:100F10007F778091E701682B90E080E00E94F008E5
:100F20002DEC3CEC4CEC5DE30E94510993C06091C8
:100F3000E60170E090E080E00E94F0086B017C0127
:100F40007090E70177FE0AC0AC019B0160E070E0A1
:100F500080E89FEB0E94460A6B017C01672D6F7051
:100F600070E090E080E00E94F2082DEC3CEC4CEC4C
:100F70005DE30E945109A70196010E94470A6B0197
:100F80007C0130927C0080917A00806480937A00AA
:100F900080917A0086FDFCCF809178006091790085
:100FA000762F682F072E000C880B990B0E94F208F1
:100FB0002B013C01AC019B010E94590B882309F4D1
:100FC00052C082E790E00E94D40184E291E00E9446
:100FD000F403A5019401C501B4010E94590B8111CC
:100FE00009C0A7019601C701B6010E94590B8823C9
:100FF00009F452C088E990E00E94D40184E291E0B3
:101000000E94F4030115110509F41BCF0E94510140
:10101000882309F416CF0E94000013CF7090E601D8
:10102000672D70E090E080E00E94F0086B017C0189
:101030006091E7016F7070E090E080E00E94F2083C
:101040002DEC3CEC4CEC5DE30E945109A7019601AC
:101050000E94470A6B017C0177FE93CFF7FAF09468
:10106000F7F8F0948ECF20E030EC4FE754E4C30162
:10107000B2010E94B30A2CE53FE842EC5DE30E9416
:10108000470A2CEB34E743E15CE30E94B30A6F8329
:10109000788789879A879DCF1A8219821C821B8242
:1010A0001E821D8270E060E0CE0101960E94210543
:1010B00029813A81811187C02115310519F0C901B3
:1010C0000E94220C1A8219821E821D821C821B829F
:1010D00020E030E040E752E4C501B4010E94540B27
:1010E0001816C4F420E030E040EA51E4C701B6012C
:1010F0000E94EB0887FF0EC020E030E040EA52E497
:101100006F81788589859A850E94540B67E271E02A
:10111000181624F120E030E040E752E4C501B401A4
:101120000E94EB0887FF18C020E030E040EA51E45D
:10113000C701B6010E94540B181674F420E030E089
:1011400040EA52E46F81788589859A850E94EB0890
:1011500062E371E087FD02C066E371E0CE010196B3
:101160000E94490542E0C701B6010E94450486E994
:1011700090E00E94D40142E0C501B4010E94450400
:1011800084E990E00E94D40142E06F8178858985EE
:101190009A850E94450482E990E00E94D4014D8125
:1011A0005E8169817A8187E491E00E94E70084E2B0
:1011B00091E00E94F40389819A81009709F422CF7B
:1011C0000E94220C1FCF1E821D8266E271E0C901BF
:1011D0000E94710D7DCF0E942D0908F481E00895D1
:1011E000E89409C097FB3EF49095809570956195C1
:1011F0007F4F8F4F9F4F9923A9F0F92F96E9BB2777
:101200009395F695879577956795B795F111F8CFF2
:10121000FAF4BB0F11F460FF1BC06F5F7F4F8F4F5D
:101220009F4F16C0882311F096E911C0772321F053
:101230009EE8872F762F05C0662371F096E8862FEB
:1012400070E060E02AF09A95660F771F881FDAF742
:10125000880F9695879597F90895990F0008550F6F
:10126000AA0BE0E8FEEF16161706E807F907C0F02C
:1012700012161306E407F50798F0621B730B840B34
:10128000950B39F40A2661F0232B242B252B21F40E
:1012900008950A2609F4A140A6958FEF811D811DAE
:1012A00008950E9464090C94D5090E94C70938F07A
:1012B0000E94CE0920F0952311F00C94BE090C94E5
:1012C000C40911240C94090A0E94E60970F3959F41
:1012D000C1F3950F50E0551F629FF001729FBB272D
:1012E000F00DB11D639FAA27F00DB11DAA1F649FC9
:1012F0006627B00DA11D661F829F2227B00DA11D7C
:10130000621F739FB00DA11D621F839FA00D611D01
:10131000221F749F3327A00D611D231F849F600D22
:10132000211D822F762F6A2F11249F5750409AF04B
:10133000F1F088234AF0EE0FFF1FBB1F661F771FD7
:10134000881F91505040A9F79E3F510580F00C94A2
:10135000BE090C94090A5F3FE4F3983ED4F38695E6
:1013600077956795B795F795E7959F5FC1F7FE2B42
:10137000880F911D9695879597F9089597F99F671E
:1013800080E870E060E008959FEF80EC089500240D
:101390000A941616170618060906089500240A94DA
:1013A00012161306140605060895092E0394000C60
:1013B00011F4882352F0BB0F40F4BF2B11F460FFEF
:1013C00004C06F5F7F4F8F4F9F4F089557FD905818
:1013D000440F551F59F05F3F71F04795880F97FBF9
:1013E000991F61F09F3F79F08795089512161306B3
:1013F0001406551FF2CF4695F1DF08C016161706E2
:101400001806991FF1CF8695710561050894089516
:10141000E894BB2766277727CB0197F908952F9289
:101420003F924F925F926F927F928F929F92AF9274
:10143000BF92CF92DF92EF92FF920F931F93CF93C1
:10144000DF93CDB7DEB7CA1BDB0B0FB6F894DEBF58
:101450000FBECDBF09942A88398848885F846E847E
:101460007D848C849B84AA84B984C884DF80EE80C8
:10147000FD800C811B81AA81B981CE0FD11D0FB6D1
:10148000F894DEBF0FBECDBFED0108955058BB27C5
:10149000AA270E945E0A0C94D5090E94C70938F059
:1014A0000E94CE0920F039F49F3F19F426F40C94E1
:1014B000C4090EF4E095E7FB0C94BE09E92F0E94E5
:1014C000E60958F3BA17620773078407950720F0F7
:1014D00079F4A6F50C94080A0EF4E0950B2EBA2FB9
:1014E000A02D0B01B90190010C01CA01A00111242A
:1014F000FF27591B99F0593F50F4503E68F11A16D6
:10150000F040A22F232F342F4427585FF3CF469566
:1015100037952795A795F0405395C9F77EF41F1688
:10152000BA0B620B730B840BBAF09150A1F0FF0F52
:10153000BB1F661F771F881FC2F70EC0BA0F621F3E
:10154000731F841F48F4879577956795B795F7952E
:101550009E3F08F0B0CF9395880F08F09927EE0FC3
:101560009795879508950E94C70A0C94D5090E9403
:10157000CE0958F00E94C70940F029F45F3F29F0D6
:101580000C94BE0951110C94090A0C94C4090E94D0
:10159000E60968F39923B1F3552391F3951B550B95
:1015A000BB27AA2762177307840738F09F5F5F4F36
:1015B000220F331F441FAA1FA9F335D00E2E3AF075
:1015C000E0E832D091505040E695001CCAF72BD08D
:1015D000FE2F29D0660F771F881FBB1F26173707DE
:1015E0004807AB07B0E809F0BB0B802DBF01FF2710
:1015F00093585F4F3AF09E3F510578F00C94BE0926
:101600000C94090A5F3FE4F3983ED4F386957795EE
:101610006795B795F7959F5FC9F7880F911D9695C8
:10162000879597F90895E1E0660F771F881FBB1F24
:10163000621773078407BA0720F0621B730B840BD1
:10164000BA0BEE1F88F7E09508950E94EE0988F026
:101650009F5798F0B92F9927B751B0F0E1F0660F76
:10166000771F881F991F1AF0BA95C9F714C0B130B7
:1016700091F00E94080AB1E008950C94080A672FBF
:10168000782F8827B85F39F0B93FCCF386957795E6
:101690006795B395D9F73EF49095809570956195CF
:1016A0007F4F8F4F9F4F08950E942D0908F48FEFB1
:1016B00008950E942D09880B990B0895A1E21A2E16
:1016C000AA1BBB1BFD010DC0AA1FBB1FEE1FFF1FE6
:1016D000A217B307E407F50720F0A21BB30BE40B36
:1016E000F50B661F771F881F991F1A9469F760957D
:1016F0007095809590959B01AC01BD01CF01089537
:10170000EE0FFF1F0590F491E02D09940F931F93A6
:10171000CF93DF938230910510F482E090E0E09166
:10172000F901F091FA0130E020E0B0E0A0E030975C
:1017300099F42115310509F44AC0281B390B2430CE
:101740003105D8F58A819B816115710589F1FB010D
:1017500093838283FE0111C04081518102811381F4
:1017600048175907E0F04817590799F4109761F0A6
:1017700012960C93129713961C933296CF01DF9119
:10178000CF911F910F9108950093F9011093FA01E1
:10179000F4CF2115310551F04217530738F0A90154
:1017A000DB019A01BD01DF01F801C1CFEF01F9CFE3
:1017B0009093FA018093F901CDCFFE01E20FF31F60
:1017C000819391932250310939832883D7CF209177
:1017D000F7013091F801232B41F42091020130915F
:1017E00003013093F8012093F7012091000130911B
:1017F00001012115310541F42DB73EB74091040197
:1018000050910501241B350BE091F701F091F8018F
:10181000E217F307A0F42E1B3F0B2817390778F0C7
:10182000AC014E5F5F4F2417350748F04E0F5F1F26
:101830005093F8014093F701819391939FCFF0E08B
:10184000E0E09CCFCF93DF930097E9F0FC01329763
:1018500013821282A091F901B091FA01ED0130E0FA
:1018600020E01097A1F420813181820F931F2091F5
:10187000F7013091F8012817390709F061C0F0939A
:10188000F801E093F701DF91CF910895EA01CE17B7
:10189000DF07E8F54A815B819E0141155105B1F7EB
:1018A000E901FB83EA8349915991C40FD51FEC17D5
:1018B000FD0761F4808191810296840F951FE901F3
:1018C00099838883828193819B838A83F0E0E0E01F
:1018D00012968D919C9113970097B9F52D913C919B
:1018E0001197CD010296820F931F2091F70130913D
:1018F000F8012817390739F6309751F51092FA0197
:101900001092F901B093F801A093F701BCCFD383F3
:10191000C28340815181840F951FC817D90761F494
:101920004E5F5F4F88819981480F591F51834083D3
:101930008A819B81938382832115310509F0B0CF81
:10194000F093FA01E093F9019ECFFD01DC01C0CFD5
:1019500013821282D7CFB0E0A0E0E1EBFCE00C9460
:10196000110A8C01009751F4CB010E94860B8C0167
:10197000C801CDB7DEB7E0E10C942D0AFC01E60FFB
:10198000F71F9C0122503109E217F30708F49DC0AC
:10199000D901CD91DC911197C617D70798F0C530C2
:1019A000D10530F3CE0104978617970708F3C61BBD
:1019B000D70B2297C193D1936D937C93CF010E9453
:1019C000220CD6CF5B01AC1ABD0A4C018C0E9D1EB9
:1019D000A091F901B091FA01512C412CF12CE12C8C
:1019E000109731F58091F7019091F80188159905CC
:1019F00009F05CC04616570608F058C080910001F7
:101A000090910101009741F48DB79EB74091040178
:101A100050910501841B950BE817F90708F055C094
:101A2000F093F801E093F701F90171836083A0CF8F
:101A30008D919C91119712966C90129713967C90B1
:101A40001397A815B90559F56C0142E0C40ED11CD5
:101A5000CA14DB0420F1AC014A195B09DA011296C1
:101A6000159780F06282738251834083D9016D9310
:101A70007C93E114F10471F0D7011396FC93EE937B
:101A8000129776CF22968C0F9D1FF9019183808348
:101A9000F301EFCFF093FA01E093F90169CF481613
:101AA000590608F42C017D01D3019ACFCB010E9485
:101AB000860B7C01009749F0AE01B8010E94680DC9
:101AC000C8010E94220C870153CF10E000E050CFE4
:101AD000FB01DC0102C001900D9241505040D8F74B
:101AE0000895FB01DC0101900D920020E1F70895BB
:041AF000F894FFCF98
:101AF4000000FB018000000000008701E7001401E2
:101B0400EF014501230137016E616E00696E6600C5
:101B14006F7666000D0A0048656176792052616926
:0E1B24006E0044727900556E6B6E6F776E0026
:00000001FF
